{
    "contractName": "ImageIntegrity",
    "abi": [
        {
            "inputs": [
                {
                    "internalType": "bytes32",
                    "name": "",
                    "type": "bytes32"
                }
            ],
            "name": "records",
            "outputs": [
                {
                    "internalType": "string",
                    "name": "imageHash",
                    "type": "string"
                },
                {
                    "internalType": "string",
                    "name": "prediction",
                    "type": "string"
                },
                {
                    "internalType": "uint256",
                    "name": "timestamp",
                    "type": "uint256"
                }
            ],
            "stateMutability": "view",
            "type": "function",
            "constant": true
        },
        {
            "inputs": [
                {
                    "internalType": "string",
                    "name": "_hash",
                    "type": "string"
                },
                {
                    "internalType": "string",
                    "name": "_prediction",
                    "type": "string"
                }
            ],
            "name": "storeRecord",
            "outputs": [],
            "stateMutability": "nonpayable",
            "type": "function"
        },
        {
            "inputs": [
                {
                    "internalType": "string",
                    "name": "_hash",
                    "type": "string"
                }
            ],
            "name": "getRecord",
            "outputs": [
                {
                    "internalType": "string",
                    "name": "",
                    "type": "string"
                },
                {
                    "internalType": "string",
                    "name": "",
                    "type": "string"
                },
                {
                    "internalType": "uint256",
                    "name": "",
                    "type": "uint256"
                }
            ],
            "stateMutability": "view",
            "type": "function",
            "constant": true
        }
    ],
    "bytecode": "0x608060405234801561000f575f80fd5b50610aa38061001d5f395ff3fe608060405234801561000f575f80fd5b506004361061003f575f3560e01c806301e647251461004357806311dd8845146100755780636386953f146100a7575b5f80fd5b61005d6004803603810190610058919061045b565b6100c3565b60405161006c93929190610528565b60405180910390f35b61008f600480360381019061008a9190610697565b6101f4565b60405161009e93929190610528565b60405180910390f35b6100c160048036038101906100bc91906106de565b610386565b005b5f602052805f5260405f205f91509050805f0180546100e190610781565b80601f016020809104026020016040519081016040528092919081815260200182805461010d90610781565b80156101585780601f1061012f57610100808354040283529160200191610158565b820191905f5260205f20905b81548152906001019060200180831161013b57829003601f168201915b50505050509080600101805461016d90610781565b80601f016020809104026020016040519081016040528092919081815260200182805461019990610781565b80156101e45780601f106101bb576101008083540402835291602001916101e4565b820191905f5260205f20905b8154815290600101906020018083116101c757829003601f168201915b5050505050908060020154905083565b6060805f808460405160200161020a91906107eb565b6040516020818303038152906040528051906020012090505f805f8381526020019081526020015f206040518060600160405290815f8201805461024d90610781565b80601f016020809104026020016040519081016040528092919081815260200182805461027990610781565b80156102c45780601f1061029b576101008083540402835291602001916102c4565b820191905f5260205f20905b8154815290600101906020018083116102a757829003601f168201915b505050505081526020016001820180546102dd90610781565b80601f016020809104026020016040519081016040528092919081815260200182805461030990610781565b80156103545780601f1061032b57610100808354040283529160200191610354565b820191905f5260205f20905b81548152906001019060200180831161033757829003601f168201915b505050505081526020016002820154815250509050805f01518160200151826040015194509450945050509193909250565b5f8260405160200161039891906107eb565b6040516020818303038152906040528051906020012090506040518060600160405280848152602001838152602001428152505f808381526020019081526020015f205f820151815f0190816103ee919061099e565b506020820151816001019081610404919061099e565b5060408201518160020155905050505050565b5f604051905090565b5f80fd5b5f80fd5b5f819050919050565b61043a81610428565b8114610444575f80fd5b50565b5f8135905061045581610431565b92915050565b5f602082840312156104705761046f610420565b5b5f61047d84828501610447565b91505092915050565b5f81519050919050565b5f82825260208201905092915050565b5f5b838110156104bd5780820151818401526020810190506104a2565b5f8484015250505050565b5f601f19601f8301169050919050565b5f6104e282610486565b6104ec8185610490565b93506104fc8185602086016104a0565b610505816104c8565b840191505092915050565b5f819050919050565b61052281610510565b82525050565b5f6060820190508181035f83015261054081866104d8565b9050818103602083015261055481856104d8565b90506105636040830184610519565b949350505050565b5f80fd5b5f80fd5b7f4e487b71000000000000000000000000000000000000000000000000000000005f52604160045260245ffd5b6105a9826104c8565b810181811067ffffffffffffffff821117156105c8576105c7610573565b5b80604052505050565b5f6105da610417565b90506105e682826105a0565b919050565b5f67ffffffffffffffff82111561060557610604610573565b5b61060e826104c8565b9050602081019050919050565b828183375f83830152505050565b5f61063b610636846105eb565b6105d1565b9050828152602081018484840111156106575761065661056f565b5b61066284828561061b565b509392505050565b5f82601f83011261067e5761067d61056b565b5b813561068e848260208601610629565b91505092915050565b5f602082840312156106ac576106ab610420565b5b5f82013567ffffffffffffffff8111156106c9576106c8610424565b5b6106d58482850161066a565b91505092915050565b5f80604083850312156106f4576106f3610420565b5b5f83013567ffffffffffffffff81111561071157610710610424565b5b61071d8582860161066a565b925050602083013567ffffffffffffffff81111561073e5761073d610424565b5b61074a8582860161066a565b9150509250929050565b7f4e487b71000000000000000000000000000000000000000000000000000000005f52602260045260245ffd5b5f600282049050600182168061079857607f821691505b6020821081036107ab576107aa610754565b5b50919050565b5f81905092915050565b5f6107c582610486565b6107cf81856107b1565b93506107df8185602086016104a0565b80840191505092915050565b5f6107f682846107bb565b915081905092915050565b5f819050815f5260205f209050919050565b5f6020601f8301049050919050565b5f82821b905092915050565b5f6008830261085d7fffffffffffffffffffffffffffffffffffffffffffffffffffffffffffffffff82610822565b6108678683610822565b95508019841693508086168417925050509392505050565b5f819050919050565b5f6108a261089d61089884610510565b61087f565b610510565b9050919050565b5f819050919050565b6108bb83610888565b6108cf6108c7826108a9565b84845461082e565b825550505050565b5f90565b6108e36108d7565b6108ee8184846108b2565b505050565b5b81811015610911576109065f826108db565b6001810190506108f4565b5050565b601f8211156109565761092781610801565b61093084610813565b8101602085101561093f578190505b61095361094b85610813565b8301826108f3565b50505b505050565b5f82821c905092915050565b5f6109765f198460080261095b565b1980831691505092915050565b5f61098e8383610967565b9150826002028217905092915050565b6109a782610486565b67ffffffffffffffff8111156109c0576109bf610573565b5b6109ca8254610781565b6109d5828285610915565b5f60209050601f831160018114610a06575f84156109f4578287015190505b6109fe8582610983565b865550610a65565b601f198416610a1486610801565b5f5b82811015610a3b57848901518255600182019150602085019450602081019050610a16565b86831015610a585784890151610a54601f891682610967565b8355505b6001600288020188555050505b50505050505056fea26469706673582212208b638e53cdfef04f69fb1ca259da821c56c1caeb140e9013e25e548c1e58032b64736f6c63430008140033",
    "immutableReferences": {},
    "source": "// SPDX-License-Identifier: MIT\r\npragma solidity 0.8.20;\r\n\r\ncontract ImageIntegrity {\r\n\r\n    struct Record {\r\n        string imageHash;\r\n        string prediction;\r\n        uint timestamp;\r\n    }\r\n\r\n    mapping(bytes32 => Record) public records;\r\n\r\n    function storeRecord(string memory _hash, string memory _prediction) public {\r\n        bytes32 key = keccak256(abi.encodePacked(_hash));\r\n\r\n        records[key] = Record({\r\n            imageHash: _hash,\r\n            prediction: _prediction,\r\n            timestamp: block.timestamp\r\n        });\r\n    }\r\n\r\n    function getRecord(string memory _hash) public view returns(string memory, string memory, uint) {\r\n        bytes32 key = keccak256(abi.encodePacked(_hash));\r\n        Record memory r = records[key];\r\n\r\n        return (r.imageHash, r.prediction, r.timestamp);\r\n    }\r\n}\r\n",
    "sourcePath": "C:\\Users\\chhav\\agri-blockchain\\contracts\\ImageIntegrity.sol",
    "compiler": {
        "name": "solc",
        "version": "0.8.20+commit.a1b79de6.Emscripten.clang"
    },
    "schemaVersion": "3.4.16",
    "updatedAt": "2025-11-22T09:52:07.881Z",
    "networkType": "ethereum",
    "devdoc": {
        "kind": "dev",
        "methods": {},
        "version": 1
    },
    "userdoc": {
        "kind": "user",
        "methods": {},
        "version": 1
    }
}